{
  "contractName": "Gacha",
  "abi": [
    {
      "inputs": [],
      "stateMutability": "nonpayable",
      "type": "constructor"
    },
    {
      "inputs": [],
      "name": "owner",
      "outputs": [
        {
          "internalType": "address",
          "name": "",
          "type": "address"
        }
      ],
      "stateMutability": "view",
      "type": "function"
    },
    {
      "inputs": [],
      "name": "gacha",
      "outputs": [
        {
          "internalType": "bytes32",
          "name": "",
          "type": "bytes32"
        }
      ],
      "stateMutability": "view",
      "type": "function"
    }
  ],
  "bytecode": "0x608060405234801561001057600080fd5b50336000806101000a81548173ffffffffffffffffffffffffffffffffffffffff021916908373ffffffffffffffffffffffffffffffffffffffff160217905550610294806100606000396000f3fe608060405234801561001057600080fd5b50600436106100365760003560e01c80638da5cb5b1461003b578063948142bb14610059575b600080fd5b610043610077565b6040516100509190610192565b60405180910390f35b61006161009b565b60405161006e91906101c6565b60405180910390f35b60008054906101000a900473ffffffffffffffffffffffffffffffffffffffff1681565b60003373ffffffffffffffffffffffffffffffffffffffff1660008054906101000a900473ffffffffffffffffffffffffffffffffffffffff1673ffffffffffffffffffffffffffffffffffffffff161461012b576040517f08c379a00000000000000000000000000000000000000000000000000000000081526004016101229061023e565b60405180910390fd5b7f4e03657aea45a94fc7d47ba826c8d667c0d1e6e33a64a036ec44f58fa12d6c45905090565b600073ffffffffffffffffffffffffffffffffffffffff82169050919050565b600061017c82610151565b9050919050565b61018c81610171565b82525050565b60006020820190506101a76000830184610183565b92915050565b6000819050919050565b6101c0816101ad565b82525050565b60006020820190506101db60008301846101b7565b92915050565b600082825260208201905092915050565b7f4f6e6c7920746865206f776e65722063616e2072756e2067616368612e000000600082015250565b6000610228601d836101e1565b9150610233826101f2565b602082019050919050565b600060208201905081810360008301526102578161021b565b905091905056fea2646970667358221220d47e0345ac888bb7f77fbc18a14cfd9416237418be0af7f646e0708f2136bdca64736f6c634300080e0033",
  "immutableReferences": {},
  "source": "// SPDX-License-Identifier: MIT\npragma solidity >=0.7.0 <0.9.0;\n\ncontract Gacha {\n  address public owner;\n\n  constructor() {\n    owner = msg.sender;\n  }\n\n  function gacha() public view returns (bytes32) {\n    require(owner == msg.sender, \"Only the owner can run gacha.\");\n    return keccak256(\"abc\");\n  }\n\n  function random() private pure {\n\n  }\n\n}",
  "sourcePath": "/Users/kmh/Desktop/coding/gacha-contract/contract/contracts/Gacha.sol",
  "compiler": {
    "name": "solc",
    "version": "0.8.14+commit.80d49f37.Emscripten.clang"
  },
  "schemaVersion": "3.4.7",
  "updatedAt": "2022-06-21T13:31:55.285Z",
  "devdoc": {
    "kind": "dev",
    "methods": {},
    "version": 1
  },
  "userdoc": {
    "kind": "user",
    "methods": {},
    "version": 1
  }
}