{
  "contractName": "KlaytnToken",
  "abi": [
    {
      "inputs": [
        {
          "internalType": "string",
          "name": "name_",
          "type": "string"
        },
        {
          "internalType": "string",
          "name": "symbol_",
          "type": "string"
        }
      ],
      "stateMutability": "nonpayable",
      "type": "constructor"
    },
    {
      "anonymous": false,
      "inputs": [
        {
          "indexed": true,
          "internalType": "address",
          "name": "owner",
          "type": "address"
        },
        {
          "indexed": true,
          "internalType": "address",
          "name": "spender",
          "type": "address"
        },
        {
          "indexed": false,
          "internalType": "uint256",
          "name": "value",
          "type": "uint256"
        }
      ],
      "name": "Approval",
      "type": "event"
    },
    {
      "anonymous": false,
      "inputs": [
        {
          "indexed": true,
          "internalType": "address",
          "name": "from",
          "type": "address"
        },
        {
          "indexed": true,
          "internalType": "address",
          "name": "to",
          "type": "address"
        },
        {
          "indexed": false,
          "internalType": "uint256",
          "name": "value",
          "type": "uint256"
        }
      ],
      "name": "Transfer",
      "type": "event"
    },
    {
      "inputs": [],
      "name": "owner",
      "outputs": [
        {
          "internalType": "address",
          "name": "",
          "type": "address"
        }
      ],
      "stateMutability": "view",
      "type": "function"
    },
    {
      "inputs": [
        {
          "internalType": "bytes4",
          "name": "interfaceId",
          "type": "bytes4"
        }
      ],
      "name": "supportsInterface",
      "outputs": [
        {
          "internalType": "bool",
          "name": "",
          "type": "bool"
        }
      ],
      "stateMutability": "view",
      "type": "function"
    },
    {
      "inputs": [],
      "name": "name",
      "outputs": [
        {
          "internalType": "string",
          "name": "",
          "type": "string"
        }
      ],
      "stateMutability": "view",
      "type": "function"
    },
    {
      "inputs": [],
      "name": "symbol",
      "outputs": [
        {
          "internalType": "string",
          "name": "",
          "type": "string"
        }
      ],
      "stateMutability": "view",
      "type": "function"
    },
    {
      "inputs": [],
      "name": "decimals",
      "outputs": [
        {
          "internalType": "uint8",
          "name": "",
          "type": "uint8"
        }
      ],
      "stateMutability": "view",
      "type": "function"
    },
    {
      "inputs": [],
      "name": "totalSupply",
      "outputs": [
        {
          "internalType": "uint256",
          "name": "",
          "type": "uint256"
        }
      ],
      "stateMutability": "view",
      "type": "function"
    },
    {
      "inputs": [
        {
          "internalType": "address",
          "name": "account",
          "type": "address"
        }
      ],
      "name": "balanceOf",
      "outputs": [
        {
          "internalType": "uint256",
          "name": "",
          "type": "uint256"
        }
      ],
      "stateMutability": "view",
      "type": "function"
    },
    {
      "inputs": [
        {
          "internalType": "address",
          "name": "to",
          "type": "address"
        },
        {
          "internalType": "uint256",
          "name": "amount",
          "type": "uint256"
        }
      ],
      "name": "transfer",
      "outputs": [
        {
          "internalType": "bool",
          "name": "",
          "type": "bool"
        }
      ],
      "stateMutability": "nonpayable",
      "type": "function"
    },
    {
      "inputs": [
        {
          "internalType": "address",
          "name": "owner",
          "type": "address"
        },
        {
          "internalType": "address",
          "name": "spender",
          "type": "address"
        }
      ],
      "name": "allowance",
      "outputs": [
        {
          "internalType": "uint256",
          "name": "",
          "type": "uint256"
        }
      ],
      "stateMutability": "view",
      "type": "function"
    },
    {
      "inputs": [
        {
          "internalType": "address",
          "name": "spender",
          "type": "address"
        },
        {
          "internalType": "uint256",
          "name": "amount",
          "type": "uint256"
        }
      ],
      "name": "approve",
      "outputs": [
        {
          "internalType": "bool",
          "name": "",
          "type": "bool"
        }
      ],
      "stateMutability": "nonpayable",
      "type": "function"
    },
    {
      "inputs": [
        {
          "internalType": "address",
          "name": "from",
          "type": "address"
        },
        {
          "internalType": "address",
          "name": "to",
          "type": "address"
        },
        {
          "internalType": "uint256",
          "name": "amount",
          "type": "uint256"
        }
      ],
      "name": "transferFrom",
      "outputs": [
        {
          "internalType": "bool",
          "name": "",
          "type": "bool"
        }
      ],
      "stateMutability": "nonpayable",
      "type": "function"
    },
    {
      "inputs": [
        {
          "internalType": "address",
          "name": "spender",
          "type": "address"
        },
        {
          "internalType": "uint256",
          "name": "addedValue",
          "type": "uint256"
        }
      ],
      "name": "increaseAllowance",
      "outputs": [
        {
          "internalType": "bool",
          "name": "",
          "type": "bool"
        }
      ],
      "stateMutability": "nonpayable",
      "type": "function"
    },
    {
      "inputs": [
        {
          "internalType": "address",
          "name": "spender",
          "type": "address"
        },
        {
          "internalType": "uint256",
          "name": "subtractedValue",
          "type": "uint256"
        }
      ],
      "name": "decreaseAllowance",
      "outputs": [
        {
          "internalType": "bool",
          "name": "",
          "type": "bool"
        }
      ],
      "stateMutability": "nonpayable",
      "type": "function"
    },
    {
      "inputs": [
        {
          "internalType": "address",
          "name": "recipient",
          "type": "address"
        },
        {
          "internalType": "uint256",
          "name": "amount",
          "type": "uint256"
        }
      ],
      "name": "safeTransfer",
      "outputs": [],
      "stateMutability": "nonpayable",
      "type": "function"
    },
    {
      "inputs": [
        {
          "internalType": "address",
          "name": "recipient",
          "type": "address"
        },
        {
          "internalType": "uint256",
          "name": "amount",
          "type": "uint256"
        },
        {
          "internalType": "bytes",
          "name": "_data",
          "type": "bytes"
        }
      ],
      "name": "safeTransfer",
      "outputs": [],
      "stateMutability": "nonpayable",
      "type": "function"
    },
    {
      "inputs": [
        {
          "internalType": "address",
          "name": "sender",
          "type": "address"
        },
        {
          "internalType": "address",
          "name": "recipient",
          "type": "address"
        },
        {
          "internalType": "uint256",
          "name": "amount",
          "type": "uint256"
        }
      ],
      "name": "safeTransferFrom",
      "outputs": [],
      "stateMutability": "nonpayable",
      "type": "function"
    },
    {
      "inputs": [
        {
          "internalType": "address",
          "name": "sender",
          "type": "address"
        },
        {
          "internalType": "address",
          "name": "recipient",
          "type": "address"
        },
        {
          "internalType": "uint256",
          "name": "amount",
          "type": "uint256"
        },
        {
          "internalType": "bytes",
          "name": "_data",
          "type": "bytes"
        }
      ],
      "name": "safeTransferFrom",
      "outputs": [],
      "stateMutability": "nonpayable",
      "type": "function"
    },
    {
      "inputs": [
        {
          "internalType": "uint256",
          "name": "amount",
          "type": "uint256"
        }
      ],
      "name": "mint",
      "outputs": [],
      "stateMutability": "nonpayable",
      "type": "function"
    }
  ],
  "bytecode": "0x60806040523480156200001157600080fd5b50604051620024ac380380620024ac833981810160405281019062000037919062000371565b600073ffffffffffffffffffffffffffffffffffffffff163373ffffffffffffffffffffffffffffffffffffffff1603620000a9576040517f08c379a0000000000000000000000000000000000000000000000000000000008152600401620000a09062000457565b60405180910390fd5b8160039080519060200190620000c192919062000124565b508060049080519060200190620000da92919062000124565b5033600560006101000a81548173ffffffffffffffffffffffffffffffffffffffff021916908373ffffffffffffffffffffffffffffffffffffffff1602179055505050620004dd565b8280546200013290620004a8565b90600052602060002090601f016020900481019282620001565760008555620001a2565b82601f106200017157805160ff1916838001178555620001a2565b82800160010185558215620001a2579182015b82811115620001a157825182559160200191906001019062000184565b5b509050620001b19190620001b5565b5090565b5b80821115620001d0576000816000905550600101620001b6565b5090565b6000604051905090565b600080fd5b600080fd5b600080fd5b600080fd5b6000601f19601f8301169050919050565b7f4e487b7100000000000000000000000000000000000000000000000000000000600052604160045260246000fd5b6200023d82620001f2565b810181811067ffffffffffffffff821117156200025f576200025e62000203565b5b80604052505050565b600062000274620001d4565b905062000282828262000232565b919050565b600067ffffffffffffffff821115620002a557620002a462000203565b5b620002b082620001f2565b9050602081019050919050565b60005b83811015620002dd578082015181840152602081019050620002c0565b83811115620002ed576000848401525b50505050565b60006200030a620003048462000287565b62000268565b905082815260208101848484011115620003295762000328620001ed565b5b62000336848285620002bd565b509392505050565b600082601f830112620003565762000355620001e8565b5b815162000368848260208601620002f3565b91505092915050565b600080604083850312156200038b576200038a620001de565b5b600083015167ffffffffffffffff811115620003ac57620003ab620001e3565b5b620003ba858286016200033e565b925050602083015167ffffffffffffffff811115620003de57620003dd620001e3565b5b620003ec858286016200033e565b9150509250929050565b600082825260208201905092915050565b7f5a65726f20616464726573732063616e6e6f74206265206f776e657200000000600082015250565b60006200043f601c83620003f6565b91506200044c8262000407565b602082019050919050565b60006020820190508181036000830152620004728162000430565b9050919050565b7f4e487b7100000000000000000000000000000000000000000000000000000000600052602260045260246000fd5b60006002820490506001821680620004c157607f821691505b602082108103620004d757620004d662000479565b5b50919050565b611fbf80620004ed6000396000f3fe608060405234801561001057600080fd5b50600436106101165760003560e01c806370a08231116100a2578063a457c2d711610071578063a457c2d7146102f5578063a9059cbb14610325578063b88d4fde14610355578063dd62ed3e14610371578063eb795549146103a157610116565b806370a082311461026d5780638da5cb5b1461029d57806395d89b41146102bb578063a0712d68146102d957610116565b806323b872dd116100e957806323b872dd146101b7578063313ce567146101e75780633950935114610205578063423f6cef1461023557806342842e0e1461025157610116565b806301ffc9a71461011b57806306fdde031461014b578063095ea7b31461016957806318160ddd14610199575b600080fd5b6101356004803603810190610130919061125c565b6103bd565b60405161014291906112a4565b60405180910390f35b61015361049f565b6040516101609190611358565b60405180910390f35b610183600480360381019061017e919061140e565b610531565b60405161019091906112a4565b60405180910390f35b6101a1610554565b6040516101ae919061145d565b60405180910390f35b6101d160048036038101906101cc9190611478565b61055e565b6040516101de91906112a4565b60405180910390f35b6101ef61058d565b6040516101fc91906114e7565b60405180910390f35b61021f600480360381019061021a919061140e565b610596565b60405161022c91906112a4565b60405180910390f35b61024f600480360381019061024a919061140e565b6105cd565b005b61026b60048036038101906102669190611478565b6105f9565b005b61028760048036038101906102829190611502565b610631565b604051610294919061145d565b60405180910390f35b6102a5610679565b6040516102b2919061153e565b60405180910390f35b6102c36106a3565b6040516102d09190611358565b60405180910390f35b6102f360048036038101906102ee9190611559565b610735565b005b61030f600480360381019061030a919061140e565b6107d2565b60405161031c91906112a4565b60405180910390f35b61033f600480360381019061033a919061140e565b610849565b60405161034c91906112a4565b60405180910390f35b61036f600480360381019061036a91906116bb565b61086c565b005b61038b6004803603810190610386919061173e565b610896565b604051610398919061145d565b60405180910390f35b6103bb60048036038101906103b6919061177e565b61091d565b005b60007f65787371000000000000000000000000000000000000000000000000000000007bffffffffffffffffffffffffffffffffffffffffffffffffffffffff1916827bffffffffffffffffffffffffffffffffffffffffffffffffffffffff1916148061048857507fa219a025000000000000000000000000000000000000000000000000000000007bffffffffffffffffffffffffffffffffffffffffffffffffffffffff1916827bffffffffffffffffffffffffffffffffffffffffffffffffffffffff1916145b8061049857506104978261093b565b5b9050919050565b6060600380546104ae9061181c565b80601f01602080910402602001604051908101604052809291908181526020018280546104da9061181c565b80156105275780601f106104fc57610100808354040283529160200191610527565b820191906000526020600020905b81548152906001019060200180831161050a57829003601f168201915b5050505050905090565b60008061053c6109a5565b90506105498185856109ad565b600191505092915050565b6000600254905090565b6000806105696109a5565b9050610576858285610b76565b610581858585610c02565b60019150509392505050565b60006012905090565b6000806105a16109a5565b90506105c28185856105b38589610896565b6105bd919061187c565b6109ad565b600191505092915050565b60006105d76109a5565b90506105f481848460405180602001604052806000815250610e81565b505050565b60006106036109a5565b9050610610848284610b76565b61062b84848460405180602001604052806000815250610e81565b50505050565b60008060008373ffffffffffffffffffffffffffffffffffffffff1673ffffffffffffffffffffffffffffffffffffffff168152602001908152602001600020549050919050565b6000600560009054906101000a900473ffffffffffffffffffffffffffffffffffffffff16905090565b6060600480546106b29061181c565b80601f01602080910402602001604051908101604052809291908181526020018280546106de9061181c565b801561072b5780601f106107005761010080835404028352916020019161072b565b820191906000526020600020905b81548152906001019060200180831161070e57829003601f168201915b5050505050905090565b3373ffffffffffffffffffffffffffffffffffffffff16600560009054906101000a900473ffffffffffffffffffffffffffffffffffffffff1673ffffffffffffffffffffffffffffffffffffffff16146107c5576040517f08c379a00000000000000000000000000000000000000000000000000000000081526004016107bc9061191e565b60405180910390fd5b6107cf3382610edd565b50565b6000806107dd6109a5565b905060006107eb8286610896565b905083811015610830576040517f08c379a0000000000000000000000000000000000000000000000000000000008152600401610827906119b0565b60405180910390fd5b61083d82868684036109ad565b60019250505092915050565b6000806108546109a5565b9050610861818585610c02565b600191505092915050565b60006108766109a5565b9050610883858285610b76565b61088f85858585610e81565b5050505050565b6000600160008473ffffffffffffffffffffffffffffffffffffffff1673ffffffffffffffffffffffffffffffffffffffff16815260200190815260200160002060008373ffffffffffffffffffffffffffffffffffffffff1673ffffffffffffffffffffffffffffffffffffffff16815260200190815260200160002054905092915050565b60006109276109a5565b905061093581858585610e81565b50505050565b60007f01ffc9a7000000000000000000000000000000000000000000000000000000007bffffffffffffffffffffffffffffffffffffffffffffffffffffffff1916827bffffffffffffffffffffffffffffffffffffffffffffffffffffffff1916149050919050565b600033905090565b600073ffffffffffffffffffffffffffffffffffffffff168373ffffffffffffffffffffffffffffffffffffffff1603610a1c576040517f08c379a0000000000000000000000000000000000000000000000000000000008152600401610a1390611a42565b60405180910390fd5b600073ffffffffffffffffffffffffffffffffffffffff168273ffffffffffffffffffffffffffffffffffffffff1603610a8b576040517f08c379a0000000000000000000000000000000000000000000000000000000008152600401610a8290611ad4565b60405180910390fd5b80600160008573ffffffffffffffffffffffffffffffffffffffff1673ffffffffffffffffffffffffffffffffffffffff16815260200190815260200160002060008473ffffffffffffffffffffffffffffffffffffffff1673ffffffffffffffffffffffffffffffffffffffff168152602001908152602001600020819055508173ffffffffffffffffffffffffffffffffffffffff168373ffffffffffffffffffffffffffffffffffffffff167f8c5be1e5ebec7d5bd14f71427d1e84f3dd0314c0f7b2291e5b200ac8c7c3b92583604051610b69919061145d565b60405180910390a3505050565b6000610b828484610896565b90507fffffffffffffffffffffffffffffffffffffffffffffffffffffffffffffffff8114610bfc5781811015610bee576040517f08c379a0000000000000000000000000000000000000000000000000000000008152600401610be590611b40565b60405180910390fd5b610bfb84848484036109ad565b5b50505050565b600073ffffffffffffffffffffffffffffffffffffffff168373ffffffffffffffffffffffffffffffffffffffff1603610c71576040517f08c379a0000000000000000000000000000000000000000000000000000000008152600401610c6890611bd2565b60405180910390fd5b600073ffffffffffffffffffffffffffffffffffffffff168273ffffffffffffffffffffffffffffffffffffffff1603610ce0576040517f08c379a0000000000000000000000000000000000000000000000000000000008152600401610cd790611c64565b60405180910390fd5b610ceb83838361103c565b60008060008573ffffffffffffffffffffffffffffffffffffffff1673ffffffffffffffffffffffffffffffffffffffff16815260200190815260200160002054905081811015610d71576040517f08c379a0000000000000000000000000000000000000000000000000000000008152600401610d6890611cf6565b60405180910390fd5b8181036000808673ffffffffffffffffffffffffffffffffffffffff1673ffffffffffffffffffffffffffffffffffffffff16815260200190815260200160002081905550816000808573ffffffffffffffffffffffffffffffffffffffff1673ffffffffffffffffffffffffffffffffffffffff1681526020019081526020016000206000828254610e04919061187c565b925050819055508273ffffffffffffffffffffffffffffffffffffffff168473ffffffffffffffffffffffffffffffffffffffff167fddf252ad1be2c89b69c2b068fc378daa952ba7f163c4a11628f55a4df523b3ef84604051610e68919061145d565b60405180910390a3610e7b848484611041565b50505050565b610e8c848484610c02565b610e9884848484611046565b610ed7576040517f08c379a0000000000000000000000000000000000000000000000000000000008152600401610ece90611d88565b60405180910390fd5b50505050565b600073ffffffffffffffffffffffffffffffffffffffff168273ffffffffffffffffffffffffffffffffffffffff1603610f4c576040517f08c379a0000000000000000000000000000000000000000000000000000000008152600401610f4390611df4565b60405180910390fd5b610f586000838361103c565b8060026000828254610f6a919061187c565b92505081905550806000808473ffffffffffffffffffffffffffffffffffffffff1673ffffffffffffffffffffffffffffffffffffffff1681526020019081526020016000206000828254610fbf919061187c565b925050819055508173ffffffffffffffffffffffffffffffffffffffff16600073ffffffffffffffffffffffffffffffffffffffff167fddf252ad1be2c89b69c2b068fc378daa952ba7f163c4a11628f55a4df523b3ef83604051611024919061145d565b60405180910390a361103860008383611041565b5050565b505050565b505050565b60006110678473ffffffffffffffffffffffffffffffffffffffff166111cd565b156111c0578373ffffffffffffffffffffffffffffffffffffffff16639d188c226110906109a5565b8786866040518563ffffffff1660e01b81526004016110b29493929190611e69565b6020604051808303816000875af19250505080156110ee57506040513d601f19601f820116820180604052508101906110eb9190611eca565b60015b611170573d806000811461111e576040519150601f19603f3d011682016040523d82523d6000602084013e611123565b606091505b506000815103611168576040517f08c379a000000000000000000000000000000000000000000000000000000000815260040161115f90611f69565b60405180910390fd5b805181602001fd5b639d188c2260e01b7bffffffffffffffffffffffffffffffffffffffffffffffffffffffff1916817bffffffffffffffffffffffffffffffffffffffffffffffffffffffff1916149150506111c5565b600190505b949350505050565b6000808273ffffffffffffffffffffffffffffffffffffffff163b119050919050565b6000604051905090565b600080fd5b600080fd5b60007fffffffff0000000000000000000000000000000000000000000000000000000082169050919050565b61123981611204565b811461124457600080fd5b50565b60008135905061125681611230565b92915050565b600060208284031215611272576112716111fa565b5b600061128084828501611247565b91505092915050565b60008115159050919050565b61129e81611289565b82525050565b60006020820190506112b96000830184611295565b92915050565b600081519050919050565b600082825260208201905092915050565b60005b838110156112f95780820151818401526020810190506112de565b83811115611308576000848401525b50505050565b6000601f19601f8301169050919050565b600061132a826112bf565b61133481856112ca565b93506113448185602086016112db565b61134d8161130e565b840191505092915050565b60006020820190508181036000830152611372818461131f565b905092915050565b600073ffffffffffffffffffffffffffffffffffffffff82169050919050565b60006113a58261137a565b9050919050565b6113b58161139a565b81146113c057600080fd5b50565b6000813590506113d2816113ac565b92915050565b6000819050919050565b6113eb816113d8565b81146113f657600080fd5b50565b600081359050611408816113e2565b92915050565b60008060408385031215611425576114246111fa565b5b6000611433858286016113c3565b9250506020611444858286016113f9565b9150509250929050565b611457816113d8565b82525050565b6000602082019050611472600083018461144e565b92915050565b600080600060608486031215611491576114906111fa565b5b600061149f868287016113c3565b93505060206114b0868287016113c3565b92505060406114c1868287016113f9565b9150509250925092565b600060ff82169050919050565b6114e1816114cb565b82525050565b60006020820190506114fc60008301846114d8565b92915050565b600060208284031215611518576115176111fa565b5b6000611526848285016113c3565b91505092915050565b6115388161139a565b82525050565b6000602082019050611553600083018461152f565b92915050565b60006020828403121561156f5761156e6111fa565b5b600061157d848285016113f9565b91505092915050565b600080fd5b600080fd5b7f4e487b7100000000000000000000000000000000000000000000000000000000600052604160045260246000fd5b6115c88261130e565b810181811067ffffffffffffffff821117156115e7576115e6611590565b5b80604052505050565b60006115fa6111f0565b905061160682826115bf565b919050565b600067ffffffffffffffff82111561162657611625611590565b5b61162f8261130e565b9050602081019050919050565b82818337600083830152505050565b600061165e6116598461160b565b6115f0565b90508281526020810184848401111561167a5761167961158b565b5b61168584828561163c565b509392505050565b600082601f8301126116a2576116a1611586565b5b81356116b284826020860161164b565b91505092915050565b600080600080608085870312156116d5576116d46111fa565b5b60006116e3878288016113c3565b94505060206116f4878288016113c3565b9350506040611705878288016113f9565b925050606085013567ffffffffffffffff811115611726576117256111ff565b5b6117328782880161168d565b91505092959194509250565b60008060408385031215611755576117546111fa565b5b6000611763858286016113c3565b9250506020611774858286016113c3565b9150509250929050565b600080600060608486031215611797576117966111fa565b5b60006117a5868287016113c3565b93505060206117b6868287016113f9565b925050604084013567ffffffffffffffff8111156117d7576117d66111ff565b5b6117e38682870161168d565b9150509250925092565b7f4e487b7100000000000000000000000000000000000000000000000000000000600052602260045260246000fd5b6000600282049050600182168061183457607f821691505b602082108103611847576118466117ed565b5b50919050565b7f4e487b7100000000000000000000000000000000000000000000000000000000600052601160045260246000fd5b6000611887826113d8565b9150611892836113d8565b9250827fffffffffffffffffffffffffffffffffffffffffffffffffffffffffffffffff038211156118c7576118c661184d565b5b828201905092915050565b7f4f6e6c79206f776e65722063616e206d696e7420746f6b656e2e000000000000600082015250565b6000611908601a836112ca565b9150611913826118d2565b602082019050919050565b60006020820190508181036000830152611937816118fb565b9050919050565b7f4b4950373a2064656372656173656420616c6c6f77616e63652062656c6f772060008201527f7a65726f00000000000000000000000000000000000000000000000000000000602082015250565b600061199a6024836112ca565b91506119a58261193e565b604082019050919050565b600060208201905081810360008301526119c98161198d565b9050919050565b7f4b4950373a20617070726f76652066726f6d20746865207a65726f206164647260008201527f6573730000000000000000000000000000000000000000000000000000000000602082015250565b6000611a2c6023836112ca565b9150611a37826119d0565b604082019050919050565b60006020820190508181036000830152611a5b81611a1f565b9050919050565b7f4b4950373a20617070726f766520746f20746865207a65726f2061646472657360008201527f7300000000000000000000000000000000000000000000000000000000000000602082015250565b6000611abe6021836112ca565b9150611ac982611a62565b604082019050919050565b60006020820190508181036000830152611aed81611ab1565b9050919050565b7f4b4950373a20696e73756666696369656e7420616c6c6f77616e636500000000600082015250565b6000611b2a601c836112ca565b9150611b3582611af4565b602082019050919050565b60006020820190508181036000830152611b5981611b1d565b9050919050565b7f4b4950373a207472616e736665722066726f6d20746865207a65726f2061646460008201527f7265737300000000000000000000000000000000000000000000000000000000602082015250565b6000611bbc6024836112ca565b9150611bc782611b60565b604082019050919050565b60006020820190508181036000830152611beb81611baf565b9050919050565b7f4b4950373a207472616e7366657220746f20746865207a65726f20616464726560008201527f7373000000000000000000000000000000000000000000000000000000000000602082015250565b6000611c4e6022836112ca565b9150611c5982611bf2565b604082019050919050565b60006020820190508181036000830152611c7d81611c41565b9050919050565b7f4b4950373a207472616e7366657220616d6f756e74206578636565647320626160008201527f6c616e6365000000000000000000000000000000000000000000000000000000602082015250565b6000611ce06025836112ca565b9150611ceb82611c84565b604082019050919050565b60006020820190508181036000830152611d0f81611cd3565b9050919050565b7f4b4950373a207472616e7366657220746f206e6f6e20494b495037526563656960008201527f76657220696d706c656d656e7465720000000000000000000000000000000000602082015250565b6000611d72602f836112ca565b9150611d7d82611d16565b604082019050919050565b60006020820190508181036000830152611da181611d65565b9050919050565b7f4b4950373a206d696e7420746f20746865207a65726f20616464726573730000600082015250565b6000611dde601e836112ca565b9150611de982611da8565b602082019050919050565b60006020820190508181036000830152611e0d81611dd1565b9050919050565b600081519050919050565b600082825260208201905092915050565b6000611e3b82611e14565b611e458185611e1f565b9350611e558185602086016112db565b611e5e8161130e565b840191505092915050565b6000608082019050611e7e600083018761152f565b611e8b602083018661152f565b611e98604083018561144e565b8181036060830152611eaa8184611e30565b905095945050505050565b600081519050611ec481611230565b92915050565b600060208284031215611ee057611edf6111fa565b5b6000611eee84828501611eb5565b91505092915050565b7f4b4950373a207472616e7366657220746f206e6f6e204b49503752656365697660008201527f657220696d706c656d656e746572000000000000000000000000000000000000602082015250565b6000611f53602e836112ca565b9150611f5e82611ef7565b604082019050919050565b60006020820190508181036000830152611f8281611f46565b905091905056fea2646970667358221220f80bdba7d53e27c7a4de339c4f8e87fd8b10329c05eba80d7d7e72a38f09113c64736f6c634300080e0033",
  "immutableReferences": {},
  "source": "// SPDX-License-Identifier: MIT\n// Klaytn Contract Library v1.0.0 (KIP/token/KIP7/KIP7.sol)\n// Based on OpenZeppelin Contracts v4.5.0 (token/ERC20/ERC20.sol)\n// https://github.com/OpenZeppelin/openzeppelin-contracts/releases/tag/v4.5.0\n\npragma solidity ^0.8.0;\n\nimport \"./utils/Context.sol\";\nimport \"./utils/introspection/KIP13.sol\";\nimport \"./IKIP7.sol\";\nimport \"./extensions/IKIP7Metadata.sol\";\nimport \"./utils/Address.sol\";\nimport \"./IKIP7Receiver.sol\";\n\n/**\n * @dev Implementation of the {IKIP7} interface.\n *\n * This implementation is agnostic to the way tokens are created. This means\n * that a supply mechanism has to be added in a derived contract using {_mint}.\n * For a generic mechanism see {KIP7PresetMinterPauser}.\n *\n * We have followed general OpenZeppelin Contracts guidelines: functions revert\n * instead returning `false` on failure. This behavior is nonetheless\n * conventional and does not conflict with the expectations of KIP7\n * applications.\n *\n * Additionally, an {Approval} event is emitted on calls to {transferFrom}.\n * This allows applications to reconstruct the allowance for all accounts just\n * by listening to said events. Other implementations of the EIP may not emit\n * these events, as it isn't required by the specification.\n *\n * Finally, the non-standard {decreaseAllowance} and {increaseAllowance}\n * functions have been added to mitigate the well-known issues around setting\n * allowances. See {IKIP7-approve}.\n *\n * See http://kips.klaytn.com/KIPs/kip-7-fungible_token\n */\ncontract KlaytnToken is KIP13, Context, IKIP7, IKIP7Metadata {\n    using Address for address;\n\n    mapping(address => uint256) private _balances;\n\n    mapping(address => mapping(address => uint256)) private _allowances;\n\n    uint256 private _totalSupply;\n\n    string private _name;\n    string private _symbol;\n\n    address private _owner;\n\n    /**\n     * @dev Sets the values for {name} and {symbol}.\n     *\n     * The default value of {decimals} is 18. To select a different value for\n     * {decimals} you should overload it.\n     *\n     * All two of these values are immutable: they can only be set once during\n     * construction.\n     */\n    constructor(string memory name_, string memory symbol_) {\n      require(msg.sender != address(0), 'Zero address cannot be owner');\n        _name = name_;\n        _symbol = symbol_;\n        _owner = msg.sender;\n    }\n\n    function owner() public view returns (address) {\n      return _owner;\n    }\n\n    /**\n     * @dev See {IKIP13-supportsInterface}.\n     */\n    function supportsInterface(bytes4 interfaceId) public view virtual override(KIP13) returns (bool) {\n        return\n            interfaceId == type(IKIP7).interfaceId ||\n            interfaceId == type(IKIP7Metadata).interfaceId ||\n            KIP13.supportsInterface(interfaceId);\n    }\n\n    /**\n     * @dev Returns the name of the token.\n     */\n    function name() public view virtual override returns (string memory) {\n        return _name;\n    }\n\n    /**\n     * @dev Returns the symbol of the token, usually a shorter version of the\n     * name.\n     */\n    function symbol() public view virtual override returns (string memory) {\n        return _symbol;\n    }\n\n    /**\n     * @dev Returns the number of decimals used to get its user representation.\n     * For example, if `decimals` equals `2`, a balance of `505` tokens should\n     * be displayed to a user as `5.05` (`505 / 10 ** 2`).\n     *\n     * Tokens usually opt for a value of 18, imitating the relationship between\n     * Ether and Wei. This is the value {KIP7} uses, unless this function is\n     * overridden;\n     *\n     * NOTE: This information is only used for _display_ purposes: it in\n     * no way affects any of the arithmetic of the contract, including\n     * {IKIP7-balanceOf} and {IKIP7-transfer}.\n     */\n    function decimals() public view virtual override returns (uint8) {\n        return 18;\n    }\n\n    /**\n     * @dev See {IKIP7-totalSupply}.\n     */\n    function totalSupply() public view virtual override returns (uint256) {\n        return _totalSupply;\n    }\n\n    /**\n     * @dev See {IKIP7-balanceOf}.\n     */\n    function balanceOf(address account) public view virtual override returns (uint256) {\n        return _balances[account];\n    }\n\n    /**\n     * @dev See {IKIP7-transfer}.\n     *\n     * Requirements:\n     *\n     * - `to` cannot be the zero address.\n     * - the caller must have a balance of at least `amount`.\n     */\n    function transfer(address to, uint256 amount) public virtual override returns (bool) {\n        address owner = _msgSender();\n        _transfer(owner, to, amount);\n        return true;\n    }\n\n    /**\n     * @dev See {IKIP7-allowance}.\n     */\n    function allowance(address owner, address spender) public view virtual override returns (uint256) {\n        return _allowances[owner][spender];\n    }\n\n    /**\n     * @dev See {IKIP7-approve}.\n     *\n     * NOTE: If `amount` is the maximum `uint256`, the allowance is not updated on\n     * `transferFrom`. This is semantically equivalent to an infinite approval.\n     *\n     * Requirements:\n     *\n     * - `spender` cannot be the zero address.\n     */\n    function approve(address spender, uint256 amount) public virtual override returns (bool) {\n        address owner = _msgSender();\n        _approve(owner, spender, amount);\n        return true;\n    }\n\n    /**\n     * @dev See {IKIP7-transferFrom}.\n     *\n     * Emits an {Approval} event indicating the updated allowance. This is not\n     * required by the EIP. See the note at the beginning of {KIP7}.\n     *\n     * NOTE: Does not update the allowance if the current allowance\n     * is the maximum `uint256`.\n     *\n     * Requirements:\n     *\n     * - `from` and `to` cannot be the zero address.\n     * - `from` must have a balance of at least `amount`.\n     * - the caller must have allowance for ``from``'s tokens of at least\n     * `amount`.\n     */\n    function transferFrom(\n        address from,\n        address to,\n        uint256 amount\n    ) public virtual override returns (bool) {\n        address spender = _msgSender();\n        _spendAllowance(from, spender, amount);\n        _transfer(from, to, amount);\n        return true;\n    }\n\n    /**\n     * @dev Atomically increases the allowance granted to `spender` by the caller.\n     *\n     * This is an alternative to {approve} that can be used as a mitigation for\n     * problems described in {IKIP7-approve}.\n     *\n     * Emits an {Approval} event indicating the updated allowance.\n     *\n     * Requirements:\n     *\n     * - `spender` cannot be the zero address.\n     */\n    function increaseAllowance(address spender, uint256 addedValue) public virtual returns (bool) {\n        address owner = _msgSender();\n        _approve(owner, spender, allowance(owner, spender) + addedValue);\n        return true;\n    }\n\n    /**\n     * @dev Atomically decreases the allowance granted to `spender` by the caller.\n     *\n     * This is an alternative to {approve} that can be used as a mitigation for\n     * problems described in {IKIP7-approve}.\n     *\n     * Emits an {Approval} event indicating the updated allowance.\n     *\n     * Requirements:\n     *\n     * - `spender` cannot be the zero address.\n     * - `spender` must have allowance for the caller of at least\n     * `subtractedValue`.\n     */\n    function decreaseAllowance(address spender, uint256 subtractedValue) public virtual returns (bool) {\n        address owner = _msgSender();\n        uint256 currentAllowance = allowance(owner, spender);\n        require(currentAllowance >= subtractedValue, \"KIP7: decreased allowance below zero\");\n        unchecked {\n            _approve(owner, spender, currentAllowance - subtractedValue);\n        }\n\n        return true;\n    }\n\n    /**\n     * @dev See {IKIP7-safeTransfer}.\n     *\n     * Emits a {Transfer} event\n     *\n     * Requirements:\n     *\n     * - `recipient` cannot be the zero address.\n     * - the caller must have a balance of at least `amount`.\n     * - if `recipient` is a smart contract, it must implement {IKIP7Receiver}\n     */\n    function safeTransfer(address recipient, uint256 amount) public virtual override {\n        address owner = _msgSender();\n        _safeTransfer(owner, recipient, amount, \"\");\n    }\n\n    /**\n     * @dev Same as {xref-KIP7-safeTransfer-address-uint256-}[`safeTransfer`], with an additional `_data` parameter which is\n     * forwarded in {IKIP7Receiver-onKIP7Received} to contract recipients.\n     *\n     * Emits a {Transfer} event\n     */\n    function safeTransfer(\n        address recipient,\n        uint256 amount,\n        bytes memory _data\n    ) public virtual override {\n        address owner = _msgSender();\n        _safeTransfer(owner, recipient, amount, _data);\n    }\n\n    /**\n     * @dev See {IKIP7-safeTransferFrom}.\n     *\n     * Emits a {Transfer} event\n     *\n     * Emits an {Approval} event indicating the updated allowance. This is not\n     * required by the KIP. See the note at the beginning of {KIP7}.\n     *\n     * NOTE: Does not update the allowance if the current allowance\n     * is the maximum `uint256`.\n     *\n     * Requirements:\n     *\n     * - `sender` and `recipient` cannot be the zero address.\n     * - `sender` must have a balance of at least `amount`.\n     * - the caller must have allowance for ``sender``'s tokens of at least `amount`.\n     * - if `recipient` is a smart contract, it must implement {IKIP7Receiver}\n     */\n    function safeTransferFrom(\n        address sender,\n        address recipient,\n        uint256 amount\n    ) public virtual override {\n        address spender = _msgSender();\n        _spendAllowance(sender, spender, amount);\n        _safeTransfer(sender, recipient, amount, \"\");\n    }\n\n    /**\n     * @dev Same as {xref-KIP7-safeTransferFrom-address-uint256-}[`safeTransferFrom`], with an additional `_data` parameter which is\n     * forwarded in {IKIP7Receiver-onKIP7Received} to contract recipients.\n     *\n     * Emits a {Transfer} event\n     *\n     * Emits an {Approval} event indicating the updated allowance.\n     */\n    function safeTransferFrom(\n        address sender,\n        address recipient,\n        uint256 amount,\n        bytes memory _data\n    ) public virtual override {\n        address spender = _msgSender();\n        _spendAllowance(sender, spender, amount);\n        _safeTransfer(sender, recipient, amount, _data);\n    }\n\n    /**\n     * @dev Safely transfers `amout` token from `from` to `to`, checking first that contract recipients\n     * are aware of the KIP7 protocol to prevent tokens from being forever locked.\n     *\n     * `_data` is additional data, it has no specified format and it is sent in call to `to` to be used\n     * for additional KIP7 receiver handler logic\n     *\n     * Emits a {Transfer} event.\n     *\n     * Requirements:\n     *\n     * - `from` cannot be the zero address.\n     * - `to` cannot be the zero address.\n     * - `from` must have a balance of at least `amount`.\n     * - if `to` is a contract it must implement {IKIP7Receiver} and\n     * - If `to` refers to a smart contract, it must implement {IKIP7Receiver}, which is called upon\n     *   a safe transfer.\n     */\n    function _safeTransfer(\n        address from,\n        address to,\n        uint256 amount,\n        bytes memory _data\n    ) internal virtual {\n        _transfer(from, to, amount);\n        require(_checkOnKIP7Received(from, to, amount, _data), \"KIP7: transfer to non IKIP7Receiver implementer\");\n    }\n\n    /**\n     * @dev Moves `amount` of tokens from `sender` to `recipient`.\n     *\n     * This internal function is equivalent to {transfer}, and can be used to\n     * e.g. implement automatic token fees, slashing mechanisms, etc.\n     *\n     * Emits a {Transfer} event.\n     *\n     * Requirements:\n     *\n     * - `from` cannot be the zero address.\n     * - `to` cannot be the zero address.\n     * - `from` must have a balance of at least `amount`.\n     */\n    function _transfer(\n        address from,\n        address to,\n        uint256 amount\n    ) internal virtual {\n        require(from != address(0), \"KIP7: transfer from the zero address\");\n        require(to != address(0), \"KIP7: transfer to the zero address\");\n\n        _beforeTokenTransfer(from, to, amount);\n\n        uint256 fromBalance = _balances[from];\n        require(fromBalance >= amount, \"KIP7: transfer amount exceeds balance\");\n        unchecked {\n            _balances[from] = fromBalance - amount;\n        }\n        _balances[to] += amount;\n\n        emit Transfer(from, to, amount);\n\n        _afterTokenTransfer(from, to, amount);\n    }\n\n    /**\n     * @dev Safely mints `amount` and transfers it to `account`.\n     *\n     * Requirements:\n     *\n     * - `account` cannot be the zero address.\n     * - If `account` refers to a smart contract, it must implement {IKIP7Receiver-onKIP7Received},\n     *   which is called upon a safe mint.\n     *\n     * Emits a {Transfer} event.\n     */\n    function _safeMint(address account, uint256 amount) internal virtual {\n        _safeMint(account, amount, \"\");\n    }\n\n    /**\n     * @dev Same as {xref-KIP7-_safeMint-address-uint256-}[`_safeMint`], with an additional `_data` parameter which is\n     * forwarded in {IKIP7Receiver-onKIP7Received} to contract recipients.\n     */\n    function _safeMint(\n        address account,\n        uint256 amount,\n        bytes memory _data\n    ) internal virtual {\n        _mint(account, amount);\n        require(\n            _checkOnKIP7Received(address(0), account, amount, _data),\n            \"KIP7: transfer to non IKIP7Receiver implementer\"\n        );\n    }\n\n    /** @dev Creates `amount` tokens and assigns them to `account`, increasing\n     * the total supply.\n     *\n     * WARNING: Usage of this method is discouraged, use {_safeMint} whenever possible\n     *\n     * Emits a {Transfer} event with `from` set to the zero address.\n     *\n     * Requirements:\n     *\n     * - `account` cannot be the zero address.\n     */\n    function _mint(address account, uint256 amount) internal virtual {\n        require(account != address(0), \"KIP7: mint to the zero address\");\n\n        _beforeTokenTransfer(address(0), account, amount);\n\n        _totalSupply += amount;\n        _balances[account] += amount;\n        emit Transfer(address(0), account, amount);\n\n        _afterTokenTransfer(address(0), account, amount);\n    }\n\n    /**\n     * @dev Internal function to invoke {IKIP7Receiver-onKIP7Received} on a target address.\n     * The call is not executed if the target address is not a contract.\n     *\n     * @param from address representing the previous owner of transfer token amount\n     * @param to target address that will receive the tokens\n     * @param amount uint256 value to be transferred\n     * @param _data bytes optional data to send along with the call\n     * @return bool whether the call correctly returned the expected magic value\n     */\n    function _checkOnKIP7Received(\n        address from,\n        address to,\n        uint256 amount,\n        bytes memory _data\n    ) private returns (bool) {\n        if (to.isContract()) {\n            try IKIP7Receiver(to).onKIP7Received(_msgSender(), from, amount, _data) returns (bytes4 retval) {\n                return retval == IKIP7Receiver.onKIP7Received.selector;\n            } catch (bytes memory reason) {\n                if (reason.length == 0) {\n                    revert(\"KIP7: transfer to non KIP7Receiver implementer\");\n                } else {\n                    assembly {\n                        revert(add(32, reason), mload(reason))\n                    }\n                }\n            }\n        } else {\n            return true;\n        }\n    }\n\n    /**\n     * @dev Destroys `amount` tokens from `account`, reducing the\n     * total supply.\n     *\n     * Emits a {Transfer} event with `to` set to the zero address.\n     *\n     * Requirements:\n     *\n     * - `account` cannot be the zero address.\n     * - `account` must have at least `amount` tokens.\n     */\n    function _burn(address account, uint256 amount) internal virtual {\n        require(account != address(0), \"KIP7: burn from the zero address\");\n\n        _beforeTokenTransfer(account, address(0), amount);\n\n        uint256 accountBalance = _balances[account];\n        require(accountBalance >= amount, \"KIP7: burn amount exceeds balance\");\n        unchecked {\n            _balances[account] = accountBalance - amount;\n        }\n        _totalSupply -= amount;\n\n        emit Transfer(account, address(0), amount);\n\n        _afterTokenTransfer(account, address(0), amount);\n    }\n\n    /**\n     * @dev Sets `amount` as the allowance of `spender` over the `owner` s tokens.\n     *\n     * This internal function is equivalent to `approve`, and can be used to\n     * e.g. set automatic allowances for certain subsystems, etc.\n     *\n     * Emits an {Approval} event.\n     *\n     * Requirements:\n     *\n     * - `owner` cannot be the zero address.\n     * - `spender` cannot be the zero address.\n     */\n    function _approve(\n        address owner,\n        address spender,\n        uint256 amount\n    ) internal virtual {\n        require(owner != address(0), \"KIP7: approve from the zero address\");\n        require(spender != address(0), \"KIP7: approve to the zero address\");\n\n        _allowances[owner][spender] = amount;\n        emit Approval(owner, spender, amount);\n    }\n\n    /**\n     * @dev Updates `owner` s allowance for `spender` based on spent `amount`.\n     *\n     * Does not update the allowance amount in case of infinite allowance.\n     * Revert if not enough allowance is available.\n     *\n     * Might emit an {Approval} event.\n     */\n    function _spendAllowance(\n        address owner,\n        address spender,\n        uint256 amount\n    ) internal virtual {\n        uint256 currentAllowance = allowance(owner, spender);\n        if (currentAllowance != type(uint256).max) {\n            require(currentAllowance >= amount, \"KIP7: insufficient allowance\");\n            unchecked {\n                _approve(owner, spender, currentAllowance - amount);\n            }\n        }\n    }\n\n    /**\n     * @dev Hook that is called before any transfer of tokens. This includes\n     * minting and burning.\n     *\n     * Calling conditions:\n     *\n     * - when `from` and `to` are both non-zero, `amount` of ``from``'s tokens\n     * will be transferred to `to`.\n     * - when `from` is zero, `amount` tokens will be minted for `to`.\n     * - when `to` is zero, `amount` of ``from``'s tokens will be burned.\n     * - `from` and `to` are never both zero.\n     *\n     * To learn more about hooks, head to xref:ROOT:extending-contracts.adoc#using-hooks[Using Hooks].\n     */\n    function _beforeTokenTransfer(\n        address from,\n        address to,\n        uint256 amount\n    ) internal virtual {}\n\n    /**\n     * @dev Hook that is called after any transfer of tokens. This includes\n     * minting and burning.\n     *\n     * Calling conditions:\n     *\n     * - when `from` and `to` are both non-zero, `amount` of ``from``'s tokens\n     * has been transferred to `to`.\n     * - when `from` is zero, `amount` tokens have been minted for `to`.\n     * - when `to` is zero, `amount` of ``from``'s tokens have been burned.\n     * - `from` and `to` are never both zero.\n     *\n     * To learn more about hooks, head to xref:ROOT:extending-contracts.adoc#using-hooks[Using Hooks].\n     */\n    function _afterTokenTransfer(\n        address from,\n        address to,\n        uint256 amount\n    ) internal virtual {}\n\n    function mint(uint256 amount) public {\n      require(_owner == msg.sender, 'Only owner can mint token.');\n        _mint(msg.sender, amount);\n    }\n}",
  "sourcePath": "/Users/minhyeokkim/Desktop/code/mh/achieve-goal-contract/contract/contracts/Token.sol",
  "compiler": {
    "name": "solc",
    "version": "0.8.14+commit.80d49f37.Emscripten.clang"
  },
  "schemaVersion": "3.4.10",
  "updatedAt": "2022-11-01T04:11:03.505Z",
  "devdoc": {
    "details": "Implementation of the {IKIP7} interface. This implementation is agnostic to the way tokens are created. This means that a supply mechanism has to be added in a derived contract using {_mint}. For a generic mechanism see {KIP7PresetMinterPauser}. We have followed general OpenZeppelin Contracts guidelines: functions revert instead returning `false` on failure. This behavior is nonetheless conventional and does not conflict with the expectations of KIP7 applications. Additionally, an {Approval} event is emitted on calls to {transferFrom}. This allows applications to reconstruct the allowance for all accounts just by listening to said events. Other implementations of the EIP may not emit these events, as it isn't required by the specification. Finally, the non-standard {decreaseAllowance} and {increaseAllowance} functions have been added to mitigate the well-known issues around setting allowances. See {IKIP7-approve}. See http://kips.klaytn.com/KIPs/kip-7-fungible_token",
    "kind": "dev",
    "methods": {
      "allowance(address,address)": {
        "details": "See {IKIP7-allowance}."
      },
      "approve(address,uint256)": {
        "details": "See {IKIP7-approve}. NOTE: If `amount` is the maximum `uint256`, the allowance is not updated on `transferFrom`. This is semantically equivalent to an infinite approval. Requirements: - `spender` cannot be the zero address."
      },
      "balanceOf(address)": {
        "details": "See {IKIP7-balanceOf}."
      },
      "constructor": {
        "details": "Sets the values for {name} and {symbol}. The default value of {decimals} is 18. To select a different value for {decimals} you should overload it. All two of these values are immutable: they can only be set once during construction."
      },
      "decimals()": {
        "details": "Returns the number of decimals used to get its user representation. For example, if `decimals` equals `2`, a balance of `505` tokens should be displayed to a user as `5.05` (`505 / 10 ** 2`). Tokens usually opt for a value of 18, imitating the relationship between Ether and Wei. This is the value {KIP7} uses, unless this function is overridden; NOTE: This information is only used for _display_ purposes: it in no way affects any of the arithmetic of the contract, including {IKIP7-balanceOf} and {IKIP7-transfer}."
      },
      "decreaseAllowance(address,uint256)": {
        "details": "Atomically decreases the allowance granted to `spender` by the caller. This is an alternative to {approve} that can be used as a mitigation for problems described in {IKIP7-approve}. Emits an {Approval} event indicating the updated allowance. Requirements: - `spender` cannot be the zero address. - `spender` must have allowance for the caller of at least `subtractedValue`."
      },
      "increaseAllowance(address,uint256)": {
        "details": "Atomically increases the allowance granted to `spender` by the caller. This is an alternative to {approve} that can be used as a mitigation for problems described in {IKIP7-approve}. Emits an {Approval} event indicating the updated allowance. Requirements: - `spender` cannot be the zero address."
      },
      "name()": {
        "details": "Returns the name of the token."
      },
      "safeTransfer(address,uint256)": {
        "details": "See {IKIP7-safeTransfer}. Emits a {Transfer} event Requirements: - `recipient` cannot be the zero address. - the caller must have a balance of at least `amount`. - if `recipient` is a smart contract, it must implement {IKIP7Receiver}"
      },
      "safeTransfer(address,uint256,bytes)": {
        "details": "Same as {xref-KIP7-safeTransfer-address-uint256-}[`safeTransfer`], with an additional `_data` parameter which is forwarded in {IKIP7Receiver-onKIP7Received} to contract recipients. Emits a {Transfer} event"
      },
      "safeTransferFrom(address,address,uint256)": {
        "details": "See {IKIP7-safeTransferFrom}. Emits a {Transfer} event Emits an {Approval} event indicating the updated allowance. This is not required by the KIP. See the note at the beginning of {KIP7}. NOTE: Does not update the allowance if the current allowance is the maximum `uint256`. Requirements: - `sender` and `recipient` cannot be the zero address. - `sender` must have a balance of at least `amount`. - the caller must have allowance for ``sender``'s tokens of at least `amount`. - if `recipient` is a smart contract, it must implement {IKIP7Receiver}"
      },
      "safeTransferFrom(address,address,uint256,bytes)": {
        "details": "Same as {xref-KIP7-safeTransferFrom-address-uint256-}[`safeTransferFrom`], with an additional `_data` parameter which is forwarded in {IKIP7Receiver-onKIP7Received} to contract recipients. Emits a {Transfer} event Emits an {Approval} event indicating the updated allowance."
      },
      "supportsInterface(bytes4)": {
        "details": "See {IKIP13-supportsInterface}."
      },
      "symbol()": {
        "details": "Returns the symbol of the token, usually a shorter version of the name."
      },
      "totalSupply()": {
        "details": "See {IKIP7-totalSupply}."
      },
      "transfer(address,uint256)": {
        "details": "See {IKIP7-transfer}. Requirements: - `to` cannot be the zero address. - the caller must have a balance of at least `amount`."
      },
      "transferFrom(address,address,uint256)": {
        "details": "See {IKIP7-transferFrom}. Emits an {Approval} event indicating the updated allowance. This is not required by the EIP. See the note at the beginning of {KIP7}. NOTE: Does not update the allowance if the current allowance is the maximum `uint256`. Requirements: - `from` and `to` cannot be the zero address. - `from` must have a balance of at least `amount`. - the caller must have allowance for ``from``'s tokens of at least `amount`."
      }
    },
    "version": 1
  },
  "userdoc": {
    "kind": "user",
    "methods": {},
    "version": 1
  }
}